:100000000C9474000C94AF0E0C94DC0E0C949C00B9
:100010000C949C000C949C000C949C000C949C00F0
:100020000C949C000C949C000C949C000C949C00E0
:100030000C949C000C949C000C949C000C949C00D0
:100040000C94090F0C94B2010C9442110C94901171
:100050000C949C000C949C000C949C000C949C00B0
:100060000C941E0C0C949C00486F6C69646179447C
:1000700075696E6F303400486F6C696461794475DE
:10008000696E6F30340000000000240027002A0051
:1000900000000000250028002B00000000002300C5
:1000A00026002900040404040404040402020202D9
:1000B000020203030303030301020408102040802B
:1000C00001020408102001020408102000000007AB
:1000D0000002010000030406000000000000000010
:1000E0001002950A700EF31211241FBECFEFD8E054
:1000F000DEBFCDBF11E0A0E0B1E0E4E5FBE202C06D
:1001000005900D92AA34B107D9F716E0AAE4B1E040
:1001100001C01D92A933B107E1F710E0C8EED0E0AD
:1001200004C02297FE010E94A415C03ED107C9F762
:100130000E9449130C94A8150C940000CF93DF93F0
:10014000BC018230910510F462E070E0A0913706A6
:10015000B0913806ED01E0E0F0E040E050E021C071
:10016000888199818617970769F48A819B813097E6
:1001700019F09383828304C09093380680933706E6
:10018000FE0134C06817790738F44115510519F09C
:100190008417950708F4AC01FE018A819B819C01BC
:1001A000E9012097E9F641155105A9F1CA01861B1D
:1001B000970B049708F4BA01E0E0F0E02AC08D91B3
:1001C0009C91119784179507F9F46417750781F4CA
:1001D00012968D919C911397309719F09383828397
:1001E00004C09093380680933706FD0132964CC0C8
:1001F000CA01861B970BFD01E80FF91F61937193EC
:1002000002978D939C9340C0FD01828193819C0154
:10021000D9011097A1F68091350690913606892B69
:1002200041F48091050190910601909336068093E8
:10023000350640910701509108014115510541F4DF
:100240004DB75EB78091030190910401481B590B93
:100250002091350630913606CA01821B930B861712
:10026000970780F0AB014E5F5F4F8417950750F002
:10027000420F531F5093360640933506F9016193A0
:10028000719302C0E0E0F0E0CF01DF91CF910895DB
:10029000CF93DF93009709F450C0EC0122971B82A3
:1002A0001A82A0913706B0913806109709F140E004
:1002B00050E0AC17BD0708F1BB83AA83FE01219172
:1002C0003191E20FF31FAE17BF0779F48D919C9126
:1002D0001197280F391F2E5F3F4F398328831296BD
:1002E0008D919C9113979B838A834115510571F4DD
:1002F000D0933806C093370620C012968D919C91FA
:100300001397AD01009711F0DC01D3CFFA01D3832D
:10031000C28321913191E20FF31FCE17DF0769F4F9
:1003200088819981280F391F2E5F3F4FFA01318351
:1003300020838A819B8193838283DF91CF9108956B
:10034000DC0101C06D9341505040E0F70895FC017D
:10035000A081B1812D913C91F9010995089581E029
:10036000089508951F920F920FB60F9211242F93A4
:100370003F934F935F936F938F939F93EF93FF936D
:100380006EB58091710490E04091090150910A018D
:100390009A01220F331F240F351F8217930774F41D
:1003A00080917104E0913804F0913904E80FF11D57
:1003B0006083809171048F5F80937104FF91EF914E
:1003C0009F918F916F915F914F913F912F910F90DE
:1003D0000FBE0F901F901895FC01549A80E1828304
:1003E0008BE290E0948383830895DF93CF9300D0D2
:1003F0000F92CDB7DEB7DC01AB01ED91FC91068029
:10040000F781E02D19821A821B82BE016F5F7F4F38
:1004100020E009950F900F900F90CF91DF910895F4
:1004200008950E944E0F60930F0170931001809306
:1004300011019093120108951F93809109019091E9
:100440000A01892B09F443C082E00E94EE10892B37
:1004500049F4809172048823D1F51092710488E0E8
:1004600060E033C08091710490E0409109015091A7
:100470000A019A01220F331F240F351F8217930799
:1004800024F480913C048823E1F011E010933A04B5
:100490000E944E0F2091630430916404442737FD7D
:1004A0004095542F260F371F481F591F20936D0466
:1004B00030936E0440936F04509370041093720451
:1004C00006C01092710488E061E00E949A101F91AA
:1004D00008958EE480937C0062E070E080E090E01C
:1004E0000E94840F80917A00806480937A008091CA
:1004F0007A0086FDFCCF8091780090E0A0E0B0E02B
:1005000060917900362F20E0442737FD4095542F25
:10051000282B392B4A2B5B2B60E070E381E190E0C4
:100520000E947315CA01B90108950F931F938C019E
:100530008DEB94E060E570E00E942A0A612F772736
:1005400067FD7A958DEB94E00E94DD0A10708DEBCB
:1005500094E0602F0E94DD0A8DEB94E00E94200B56
:100560008DEB94E060E570E041E050E00E94310BDB
:100570008DEB94E00E94340A892B11F480E004C0D2
:100580008DEB94E00E943D0A1F910F910895DF9238
:10059000EF92FF920F931F938C01D62E8DEBE82ED6
:1005A00084E0F82EC70160E570E00E942A0A612FFE
:1005B000772767FD7A95C7010E94DD0A1070C70191
:1005C000602F0E94DD0AC7016D2D0E94DD0AC70160
:1005D0000E94200B65E070E080E090E00E94840FB4
:1005E0001F910F91FF90EF90DF9008950F931F934D
:1005F000CF93DF93182F8F3339F483E196E068E6C9
:1006000070E00E94D01393C18B3519F08D3581F4C1
:1006100007C08DEB94E068E070E00E94540B04C0CA
:100620008DEB94E00E94350B83E196E0612F7DC154
:10063000813491F4809167048370825F60E00E944E
:100640005B108091670483700E9439108091670469
:1006500083700E943910C2C0823479F585E00E940F
:10066000EE108C0186E00E94EE10892B19F0C0E09C
:10067000D0E002C0C2E0D0E087E00E94EE10892BFB
:1006800019F020E030E002C024E030E060E070E0EB
:10069000012B11F461E070E080913E04992787FD01
:1006A000909544E0880F991F4A95E1F7682B792BC4
:1006B0006C2B7D2B622B732B2CC18334F9F480912E
:1006C000650490916604029771F460910B0170913A
:1006D0000C0180916704909168040E943E1560911E
:1006E00069040E94C70260910B0170910C01809116
:1006F0006704909168040E943E151FC0843439F548
:1007000080913D0490E0209165043091660482233D
:100710009323892B81F06091670470916804809124
:10072000410490914204681779070CF060E085E07D
:1007300090E00E94C70285E090E00E949502682F39
:1007400083E196E04AE050E00E948B14F0C08534CB
:10075000B1F48091650490916604892B59F0109250
:100760003B048091670490916804892B19F081E023
:1007700080933B0460E070E080913B04A4C0873428
:1007800069F4809167048370825F61E00E945B106E
:10079000809167048370825F60E00EC0883479F4D2
:1007A000809167048370825F61E00E945B1080919A
:1007B00067048370825F61E00E949A1009C08934E7
:1007C00079F4809167048370825F60E00E945B101F
:1007D000809167048370825F0E94EE10BC0199C013
:1007E0008C3401F58091650490916604892BA9F001
:1007F00080913D04882389F06091670470916804BA
:100800006B3F710514F06AEF70E070930A0160931A
:10081000090183E090E00E94C70260910901709194
:100820000A0177C0803599F480916504909166043F
:10083000892B41F080916704909168049093400463
:1008400080933F0460913F047091400462C0823500
:1008500019F58091650490916604029781F4E09106
:100860006704F0916804EF70F070EE0FFF1FED5B0E
:10087000FB4F8091690490916A0491838083E09199
:100880006704F0916804EF70F070EE0FFF1FED5BEE
:10089000FB4F608171813DC08435D1F48091650446
:1008A00090916604892B59F010923C048091670462
:1008B00090916804892B19F081E080933C0460E0FA
:1008C00070E080913C04882321F161E070E021C058
:1008D000863559F40E946902AB01BC0183E196E0C0
:1008E0002AE030E00E94E91422C08735C9F48091E3
:1008F000650490916604892B41F080916704909182
:10090000680490936404809363046091630470911D
:10091000640483E196E04AE050E00E94FD1407C0C1
:1009200080322CF083E196E06FE30E94E413DF91C4
:10093000CF911F910F9108950F931F93CF93DF9342
:1009400083E196E040E052EC61E070E00E94CB1160
:1009500085E062E00E945B1086E062E00E945B102E
:1009600087E062E00E945B1088E061E00E945B101B
:1009700088E061E00E949A108CE061E00E945B10C8
:100980008CB580648CBDC0910901D0910A011C1600
:100990001D06D4F4009138011091390189E090E0EE
:1009A0000E945813FC01158216821782108688E176
:1009B00091E091838083C801BF014AE451E09E0128
:1009C00000E010E00E94CD0D8AE491E0909339049C
:1009D00080933804109271041092720480E06CE1EC
:1009E00072E041E050E00E948C0E81E061E172E033
:1009F00042E050E00E948C0E8CB580688CBD85E092
:100A00000E94EE10892B29F480913E048F5F809321
:100A10003E0486E00E94EE10892B29F480913E046A
:100A20008E5F80933E0487E00E94EE10892B29F4AC
:100A300080913E048C5F80933E048DEB94E00E9495
:100A4000350B80E090E00E949502883669F581E0E0
:100A500090E00E949502813039F580933D0482E058
:100A600090E00E94950290E0880F991F880F991FCF
:100A700090930C0180930B0183E090E00E9495021B
:100A80008093090110920A0184E090E00E9495028F
:100A9000809341041092420485E090E00E94950208
:100AA00080933F041092400483E196E067E770E092
:100AB0000E94D013DF91CF911F910F9108950F9352
:100AC0001F938C010E945C0F9B01AC01F801808197
:100AD0009181A281B381281B390B4A0B5B0B223316
:100AE00031054105510534F482E390E0821B930BFC
:100AF0000E94EE0F1F910F910895CF92DF92EF9217
:100B0000FF920F931F93CF93DF936C01162F072F44
:100B1000EA01E22E05960E945F05F894212F302FFE
:100B2000C901FC01BE01660F771F6C0F7D1F680FA6
:100B3000791F5BB150618BB18F7E8BB921813E2DC6
:100B4000239F212DE7C095E05BB900140014001429
:100B5000001427FF8BB900140014001400140014B3
:100B60008BB902E00A95F1F7220F915069F7001452
:100B70005BB9001400140014001427FF8BB9001493
:100B800000140014001400148BB9001403E00A953B
:100B9000F1F75BB9001400140014001426FF8BB9A0
:100BA000001400140014001400148BB90014001475
:100BB00000140014001430814E2D349F312D5BB988
:100BC000001400140014001425FF8BB90014001445
:100BD0000014001400148BB903E00A95F1F795E0B6
:100BE0005BB9001400140014001437FF8BB9001413
:100BF00000140014001400148BB902E00A95F1F7F8
:100C0000330F915069F700145BB9001400140014FD
:100C1000001437FF8BB900140014001400140014E2
:100C20008BB9001403E00A95F1F75BB900140014C6
:100C30000014001436FF8BB90014001400140014C3
:100C400000148BB900140014001400140014428125
:100C50002E2D429F412D5BB9001400140014001486
:100C600035FF8BB9001400140014001400148BB964
:100C700003E00A95F1F795E05BB900140014001445
:100C8000001447FF8BB90014001400140014001462
:100C90008BB902E00A95F1F7440F915069F70014FF
:100CA0005BB9001400140014001447FF8BB9001442
:100CB00000140014001400148BB90014001402E096
:100CC0000A95F1F733965BB9001400140014001470
:100CD00046FF8BB9001400140014001400148BB9E3
:100CE0000014001400140014001421813E2D239FD1
:100CF000212D5BB9001400140014001445FF8BB9BA
:100D0000001400140014001400148BB90014001413
:100D100000140014E617F70708F415CF1124E0902B
:100D20008605F0908705009188051091890588EB6C
:100D300090E0FC01CE9FC001CF9F900DDE9F900DF3
:100D4000112464E170E00E943E15882777FD8095AC
:100D5000982F28EE33E040E050E00E947315E20E39
:100D6000F31E041F151FE0928605F092870500937D
:100D700088051093890578940E945C0FF6016583BD
:100D8000768387839087DF91CF911F910F91FF909A
:100D9000EF90DF90CF900895AF92BF92CF92DF9205
:100DA000EF92FF920F931F93CF93DF935C01EB01C0
:100DB0006A01122F05960E945F05F894B601660F2E
:100DC000771F6C0D7D1D6C0F7D1F5BB150618BB16A
:100DD0008F7E8BB9A9812A2F219F212DFE01E4C08E
:100DE00095E05BB9001400140014001427FF8BB9C0
:100DF000001400140014001400148BB902E00A95CA
:100E0000F1F7220F915069F700145BB90014001438
:100E10000014001427FF8BB90014001400140014F0
:100E200000148BB9001403E00A95F1F75BB90014C4
:100E300000140014001426FF8BB9001400140014D1
:100E4000001400148BB900140014001400140014D2
:100E50003881319F312D5BB9001400140014001447
:100E600025FF8BB9001400140014001400148BB972
:100E700003E00A95F1F795E05BB900140014001443
:100E8000001437FF8BB90014001400140014001470
:100E90008BB902E00A95F1F7330F915069F700140E
:100EA0005BB9001400140014001437FF8BB9001450
:100EB00000140014001400148BB9001403E00A9508
:100EC000F1F75BB9001400140014001436FF8BB95D
:100ED000001400140014001400148BB90014001442
:100EE0000014001400144A81419F412D5BB9001485
:100EF00000140014001435FF8BB900140014001402
:100F0000001400148BB903E00A95F1F795E05BB982
:100F1000001400140014001447FF8BB900140014CF
:100F20000014001400148BB902E00A95F1F7440F85
:100F3000915069F700145BB90014001400140014F8
:100F400047FF8BB9001400140014001400148BB96F
:100F50000014001402E00A95F1F733965BB900140F
:100F600000140014001446FF8BB900140014001480
:100F7000001400148BB900140014001400140014A1
:100F80002A2F219F212D5BB9001400140014001496
:100F900045FF8BB9001400140014001400148BB921
:100FA0000014001400140014E617F70708F418CF13
:100FB0001124E0908605F090870500918805109136
:100FC000890588EB90E09C01C29EC001C39E900DF4
:100FD000D29E900D112464E170E00E943E15882796
:100FE00077FD8095982F28EE33E040E050E00E9496
:100FF0007315E20EF31E041F151FE0928605F09292
:101000008705009388051093890578940E945C0FEA
:10101000F5016583768387839087DF91CF911F9158
:101020000F91FF90EF90DF90CF90BF90AF90089519
:101030001F93182F682F62956F7060636A330CF0EE
:10104000695D772767FD709583E196E00E94B31292
:10105000612F6F7060636A330CF0695D772767FDFD
:10106000709583E196E00E94B3121F910895EF926C
:10107000FF920F931F93CF93DF9383E196E00E943B
:101080004912892B09F483C081E080933A040E94BD
:101090004E0F2091630430916404442737FD40953E
:1010A000542F260F371F481F591F20936D0430936C
:1010B0006E0440936F045093700483E196E00E94A5
:1010C0007A12182F80913B04882329F083E196E05F
:1010D000612F0E94A813812F80538A3058F5809188
:1010E000650490916604892B31F481E090E090933F
:1010F000660480936504E0916504F0916604EE0F48
:10110000FF1FEB59FB4F808191819C01A3E0220FCF
:10111000331FAA95E1F7880F991F280F391F205315
:101120003040812F992787FD9095280F391F3183F3
:1011300020832DC01C3201F58091650490916604D6
:1011400082309105CCF4892B31F481E090E09093CA
:10115000660480936504E0916504F091660431961D
:10116000F0936604E09365043197EE0FFF1FE95991
:10117000FB4F118210820BC0812F0E94F602109249
:1011800066041092650410926804109267048091BE
:101190003A04882309F0DDC0E0906D04F0906E04FD
:1011A00000916F04109170040E944E0F6E157F0520
:1011B0008007910708F4CDC08091090190910A0140
:1011C000FC01EE0FFF1FE80FF91F2AE431E0C9010F
:1011D00060E070E0AF010E94A001E0900F01F0908C
:1011E0001001009111011091120188EE93E0A0E02E
:1011F000B0E0E80EF91E0A1F1B1F0E944E0FE616F4
:10120000F7060807190720F48FE380934A0103C00B
:101210008FE380934C0185E00E94EE10892B29F426
:1012200080914C01815C80934C0186E00E94EE101D
:10123000892B29F480914C01815C80934C0187E0DB
:101240000E94EE10892B29F480914C01815C8093DF
:101250004C0120916B0430916C042370307021306C
:10126000310599F022303105F1F080910D01909116
:101270000E01232B29F5FC01EE0FFF1FE80FF91FCC
:10128000E65BFE4F8FEF808326C080910D01909129
:101290000E01FC01EE0FFF1FE80FF91FE65BFE4F8A
:1012A0008FEF818318C080910D0190910E01FC0198
:1012B000EE0FFF1FE80FF91FE65BFE4F8FEF0AC02E
:1012C000FC01EE0FFF1FE80FF91FE65BFE4F8FEFEB
:1012D0008083818382838091090190910A0118168D
:1012E000190654F4E0913601F0913701CF01EE5B1D
:1012F000FF4F60810E94220E80910D0190910E019E
:10130000019690930E0180930D0120910901309177
:101310000A01821793077CF081E090E090930E0120
:1013200080930D0180916B0490916C0401969093D1
:101330006C0480936B040E944E0F6E5C7F4F8F4F46
:101340009F4F60936D0470936E0480936F0490932D
:10135000700480917204882309F459C080913C0480
:101360008823F1F1C0E0D0E011C0209729F083E19B
:1013700096E06CE20E94A813E0913804F0913904E1
:10138000EC0FFD1F80810E94180821968091710446
:1013900090E0C817D9074CF383E196E060E071E074
:1013A0000E941C150EC080917104E0913804F091E8
:1013B0003904E80FF11D1082809171048F5F8093D2
:1013C00071048091710490E04091090150910A01EB
:1013D0009A01220F331F240F351F821793071CF326
:1013E0008091090190910A011816190654F4E091B0
:1013F0003601F0913701CF01EE5BFF4F60810E9413
:10140000220E1092720488E061E00E949A1080918E
:1014100063049091640418161906ACF480913A04A0
:10142000882389F0E0906D04F0906E0400916F04C1
:10143000109170040E944E0F6E157F058007910772
:1014400010F010923A04DF91CF911F910F91FF900D
:10145000EF90089581E08093B80460939504109212
:10146000B6041092B70408952091940430E080915E
:101470009304281B3109C901089540919304809178
:101480009404481718F02FEF3FEF0AC0E42FF0E064
:10149000ED58FB4F8081282F30E04F5F409393043D
:1014A000C9010895E091930480919404E81718F01D
:1014B000EFEFFFEF06C0F0E0ED58FB4F8081E82F23
:1014C000F0E0CF0108950895AC012091BB04309164
:1014D000BC0421153105E1F09091930480919404AE
:1014E0009817B0F090E008C0FA01EA0FFB1F808166
:1014F000AD58BB4F8C939F5FA92FB0E0A617B707DD
:101500009CF31092930460939404CB01F901099524
:101510000895E091B904F091BA04309729F010923F
:10152000B6041092B704099508951092C004109261
:10153000BF0488EE93E0A0E0B0E08093C1049093F4
:10154000C204A093C304B093C4048AE291E09093D0
:10155000BE048093BD040895CF92DF92EF92FF9274
:101560000F931F93CF93DF937C016B018A018091CE
:10157000B8048823A1F0C0E0D0E00DC0D701ED9100
:10158000FC91D601AC0FBD1F0190F081E02DC70189
:101590006C9109952196C017D10780F304C0CB0147
:1015A000642F0E94F90BC801DF91CF911F910F9119
:1015B000FF90EF90DF90CF900895DF93CF930F923D
:1015C000CDB7DEB7FC0169838091B8048823C9F0E8
:1015D0008091B704803238F081E090E09383828379
:1015E00020E030E015C08091B604E82FF0E0EA5624
:1015F000FB4F998190838F5F8093B6048093B704EB
:1016000005C0CE01019661E00E94F90B21E030E0B7
:10161000C9010F90CF91DF9108950F93062F80910C
:10162000950466E974E04091B70421E00E94A40BA0
:101630001092B6041092B7041092B8040F91089556
:1016400061E00E940D0B0895413208F040E2862FC0
:1016500063E774E00E945B0B109293048093940400
:10166000089521E00E94240B089510929304109293
:1016700094041092B6041092B7040E94AF0D08951E
:101680000F931F938C01862F0E94570B89E89AE0D5
:101690000E94190C84E69AE00E94140CC8010E9472
:1016A000350B1F910F9108950E94400B0895880FEC
:1016B0008093BA000895382F413210F040E042C0C4
:1016C0008091C9048823E1F791E09093C9042093A5
:1016D000CB048FEF809336051092F1044150409374
:1016E000F2044F5F9093CA048091CA04330F832B96
:1016F0008093CA048091CC04813041F41092CC04D0
:101700008091CA048093BB0085EC01C085EE809374
:10171000BC008091C9048130E1F38091F104841709
:1017200010F44091F10420E030E00AC0FB01E20F28
:10173000F31FD901AF52BB4F8C9180832F5F3F4F76
:101740002417A0F3842F08950F931F93582F122F5F
:10175000413210F081E04AC08091C9048823E1F74A
:1017600082E08093C9040093CB048FEF8093360509
:101770001092F1044093F204A1EDB4E0FB0102C029
:1017800081918D938E2F861B8417D0F31092CA04FB
:101790008091CA04550F852B8093CA048091CC0494
:1017A000813041F41092CC048091CA048093BB0034
:1017B00085EC01C085EE8093BC00112321F080915F
:1017C000C9048230E1F3809136058F3F11F480E047
:1017D0000DC080913605803211F482E007C08091FF
:1017E0003605803311F084E001C083E01F910F9132
:1017F0000895482F613210F081E008958091C90466
:10180000843011F082E0089560931405A3EFB4E0F2
:10181000842F9C01F90102C081918D938E2F841B2E
:101820008617D0F380E008959093D0048093CF047E
:1018300008959093CE048093CD0408951F920F9243
:101840000FB60F9211242F933F934F935F936F9393
:101850007F938F939F93AF93BF93EF93FF93809169
:10186000B90090E0887F90708036910509F4F2C04D
:1018700081369105CCF58832910509F47BC0893217
:101880009105B4F48031910509F46FC0813191055F
:101890003CF4009709F447C1089709F04FC165C0AF
:1018A0008831910509F466C0809709F047C182C06C
:1018B0008034910509F4A4C08134910544F4803347
:1018C000910509F482C0C89709F038C189C08035F4
:1018D000910509F489C08835910509F496C08834CA
:1018E000910509F02BC1AEC08839910509F413C1E7
:1018F00089399105ECF48837910509F4ABC0893733
:1019000091054CF48836910509F4A4C080379105FF
:1019100009F014C19FC08838910509F4FCC08039D2
:10192000910509F49DC08038910509F007C198C060
:10193000803B910509F4C6C0813B91054CF4803A87
:10194000910509F49FC0883A910509F0F7C0BAC023
:10195000803C910509F4E3C0883C910509F4DFC09F
:10196000883B910509F0EAC0C2C08091CA04809307
:10197000BB00CFC09091F1048091F204981768F4F5
:101980009091F104E92FF0E0EF52FB4F80818093BA
:10199000BB009F5F9093F104BCC08091CB0488236F
:1019A00009F44BC085ED8093BC008091BC0084FDA0
:1019B000FCCFC2C080E28093360585ED8093BC00E9
:1019C0008091BC0084FDFCCFB7C080E380933605D6
:1019D00085ED8093BC008091BC0084FDFCCFACC041
:1019E00088E3809336059BC08091F1049091BB0001
:1019F000E82FF0E0EF52FB4F90838F5F8093F1046C
:101A00009091F1048091F20482C08091F104909150
:101A1000BB00E82FF0E0EF52FB4F90838F5F809385
:101A2000F1048091CB04882341F085ED8093BC00C4
:101A30008091BC0084FDFCCF7FC081E08093CC040A
:101A400084EA6EC085ED8093BC008091BC0084FD6B
:101A5000FCCF72C083E08093C9041092350559C051
:101A600080913505803208F056C0809135059091FF
:101A7000BB00E82FF0E0EB5EFA4F90838F5F80931E
:101A8000350547C080913505803230F4E091350549
:101A9000F0E0EB5EFA4F108285ED8093BC00809100
:101AA000BC0084FDFCCF1092C90460913505E09123
:101AB000CF04F091D00485E195E070E00995109293
:101AC00035052DC084E08093C9041092130510924F
:101AD0001405E091CD04F091CE0409958091140590
:101AE000882329F481E0809314051092F3049091E7
:101AF0001305E92FF0E0ED50FB4F80818093BB0090
:101B00009F5F90931305909113058091140598178A
:101B100010F485EC01C085E88093BC000FC085EC13
:101B20008093BC0009C01092360585ED8093BC00FF
:101B30008091BC0084FDFCCF1092C904FF91EF910D
:101B4000BF91AF919F918F917F916F915F914F91D5
:101B50003F912F910F900FBE0F901F9018951092EC
:101B6000C90481E08093CB041092CC0482E161E04F
:101B70000E949A1083E161E00E949A10E9EBF0E084
:101B800080818E7F808380818D7F80838CE58093B0
:101B9000B80085E48093BC000895DF92EF92FF9235
:101BA0000F931F93CF93DF93EC017B011016110667
:101BB0002CF0D22E032F20E030E002C0D02E012FD7
:101BC000C05CDF4FA881B981C054D040FE0160E005
:101BD00070E007C0808191813896892B41F06F5F5A
:101BE0007F4F6A177B07B4F3EE24FF2422C0E3E0A3
:101BF000660F771FEA95E1F7DE01A60FB71F119672
:101C0000FC92EE92FE01E60FF71F53834283179674
:101C10003C932E931697FB013496EC0FFD1FD08258
:101C20000183D701ED91FC910190F081E02DC70176
:101C30000995C701DF91CF911F910F91FF90EF9010
:101C4000DF900895DF92EF92FF920F931F93CF934F
:101C5000DF93D62EEC0100E010E050E4E52EF12CED
:101C6000E80EF91E1DC0A881B9811097F9F0ED9119
:101C7000FC9111972E813F81C901880F991F820F16
:101C8000931F6A817B81680F791F4C815D8100847D
:101C9000F185E02DCD012D2D09950F5F1F4F289661
:101CA000F7018081918108171907ECF2DF91CF913C
:101CB0001F910F91FF90EF90DF900895FC01E05C81
:101CC000FF4F88E090E0819391938FEF8083E254FF
:101CD000F040CF0160E040E450E00E94810E0895A2
:101CE00087E395E00E945E0E84E594E6ACEFB0E0F9
:101CF00080937A0590937B05A0937C05B0937D0536
:101D00000895DC0140FF03C001C06D936D93425004
:101D1000E0F75040D0F70895823000F5E82FF0E06A
:101D2000EE0FFF1FE258FA4F71836083882319F08A
:101D30008130A1F408C0809169008C7F842B80934E
:101D40006900E89A089580916900440F551F440F77
:101D5000551F837F842B80936900E99A08951F9211
:101D60000F920FB60F9211242F933F934F935F93CF
:101D70006F937F938F939F93AF93BF93EF93FF9353
:101D800080917E0590917F05892B29F0E0917E0559
:101D9000F0917F050995FF91EF91BF91AF919F91D0
:101DA0008F917F916F915F914F913F912F910F9004
:101DB0000FBE0F901F9018951F920F920FB60F92A3
:101DC00011242F933F934F935F936F937F938F9340
:101DD0009F93AF93BF93EF93FF9380918005909172
:101DE0008105892B29F0E0918005F0918105099505
:101DF000FF91EF91BF91AF919F918F917F916F91E3
:101E00005F914F913F912F910F900FBE0F901F90B8
:101E100018951F920F920FB60F9211242F933F9394
:101E20008F939F93AF93BF93809186059091870581
:101E3000A0918805B091890530918A05232F2A59F0
:101E40002D3720F02D570196A11DB11D20938A0535
:101E50008093860590938705A0938805B0938905A4
:101E60008091820590918305A0918405B0918505AC
:101E70000196A11DB11D8093820590938305A093C7
:101E80008405B0938505BF91AF919F918F913F914C
:101E90002F910F900FBE0F901F9018958FB7F89449
:101EA00020918605309187054091880550918905DC
:101EB0008FBFB901CA0108953FB7F8948091820598
:101EC00090918305A0918405B091850526B5A89BC6
:101ED00005C02F3F19F00196A11DB11D3FBFBA2FBC
:101EE000A92F982F8827820F911DA11DB11D9C013C
:101EF000AD01220F331F441F551F280F391F4A1FE2
:101F00005B1FB901CA010895EF92FF920F931F93CF
:101F10007B018C019FB7F894209182053091830555
:101F2000409184055091850586B5A89B06C08F3FDA
:101F300021F02F5F3F4F4F4F5F4F9FBF542F432FD5
:101F4000322F2227280F311D411D511DDA01C901F1
:101F5000880F991FAA1FBB1F820F931FA41FB51FB5
:101F6000BC0132C09FB7F89420918205309183055F
:101F7000409184055091850586B5A89B06C08F3F8A
:101F800021F02F5F3F4F4F4F5F4F9FBF542F432F85
:101F9000322F2227280F311D411D511DDA01C901A1
:101FA000880F991FAA1FBB1F820F931FA41FB51F65
:101FB000861B970B885E9340A8F20894E108F1080D
:101FC0000109110968517C4FE114F1040105110563
:101FD00049F61F910F91FF90EF90089500000000C7
:101FE0009C012150304049F0220F331F220F331F34
:101FF0000397820F931F0197F1F70895789484B5A2
:10200000826084BD84B5816084BD85B5826085BDF4
:1020100085B5816085BDEEE6F0E0808181608083DA
:10202000E1E8F0E0108280818260808380818160BD
:102030008083E0E8F0E0808181608083E1EBF0E084
:10204000808184608083E0EBF0E080818160808328
:10205000EAE7F0E080818460808380818260808311
:102060008081816080838081806880831092C1003C
:102070000895982F8E3008F09E509770809113012C
:102080008295880F880F807C892B80937C008091BB
:102090007A00806480937A0080917A0086FDFCCF7C
:1020A0002091780040917900942F80E030E0282B37
:1020B000392BC9010895CF93DF93482F50E0CA010F
:1020C00088549F4FFC0134914C555F4FFA01849125
:1020D000882369F190E0880F991FFC01EA57FF4FB0
:1020E000A591B491FC01E057FF4FC591D4916623AF
:1020F00051F42FB7F8948C91932F909589238C935A
:10210000888189230BC0623061F42FB7F8948C91D9
:10211000932F909589238C938881832B88832FBF5D
:1021200006C09FB7F8948C91832B8C939FBFDF914F
:10213000CF910895482F50E0CA0184539F4FFC016E
:102140002491CA0188549F4FFC0194914C555F4FD4
:10215000FA013491332309F440C0222351F1233092
:1021600071F0243028F42130A1F0223011F514C090
:102170002630B1F02730C1F02430D9F404C080916A
:1021800080008F7703C0809180008F7D80938000D6
:1021900010C084B58F7702C084B58F7D84BD09C01F
:1021A0008091B0008F7703C08091B0008F7D8093C5
:1021B000B000E32FF0E0EE0FFF1FE057FF4FA591B7
:1021C000B4912FB7F894662321F48C9190958923CC
:1021D00002C08C91892B8C932FBF0895682F70E0DB
:1021E000CB0184539F4FFC012491CB0188549F4F16
:1021F000FC0144916C557F4FFB019491992319F494
:1022000020E030E03CC0222351F1233071F0243033
:1022100028F42130A1F0223011F514C02630B1F09D
:102220002730C1F02430D9F404C0809180008F772A
:1022300003C0809180008F7D8093800010C084B5A2
:102240008F7702C084B58F7D84BD09C08091B000B6
:102250008F7703C08091B0008F7D8093B000892F6D
:1022600090E0880F991F86569F4FFC01A591B4916D
:102270008C9120E030E0842311F021E030E0C901AE
:10228000089508951F920F920FB60F9211242F9365
:102290003F934F938F939F93EF93FF938091C00051
:1022A00082FD1DC04091C6002091CB053091CC0528
:1022B0002F5F3F4F2F7330708091CD059091CE05E9
:1022C0002817390771F0E091CB05F091CC05E5575F
:1022D000FA4F40833093CC052093CB0502C0809108
:1022E000C600FF91EF919F918F914F913F912F9158
:1022F0000F900FBE0F901F901895E0911F06F09160
:102300002006E05CFF4F8191919120813181821BF9
:10231000930B8F739070892B11F00E9441110895D7
:102320001F920F920FB60F9211242F933F938F930A
:102330009F93EF93FF9320910F06309110068091A9
:102340001106909112062817390731F48091C100C7
:102350008F7D8093C10014C0E0911106F0911206A8
:10236000E153FA4F20818091110690911206019657
:102370008F73907090931206809311062093C6007D
:10238000FF91EF919F918F913F912F910F900FBEF1
:102390000F901F901895AF92BF92DF92EF92FF922D
:1023A0000F931F93CF93DF93EC017A018B01DD2410
:1023B000D39491E0A92EB12CEC89FD89DD2069F040
:1023C000C50108A002C0880F991F0A94E2F7808314
:1023D00060E47BE48CE490E005C0108260EA75E282
:1023E00086E290E0A80197010E94511521503040EB
:1023F00040405040569547953795279580E12030CD
:10240000380720F0DD2011F0DD24D6CFE889F989E6
:102410003083EA89FB89208319A2EE89FF894081F4
:1024200021E030E0C9010C8C02C0880F991F0A948A
:10243000E2F7482B4083EE89FF894081C9010D8C6A
:1024400002C0880F991F0A94E2F7482B4083EE8957
:10245000FF894081C9010E8C02C0880F991F0A9420
:10246000E2F7482B4083EE89FF8980810F8C02C000
:10247000220F331F0A94E2F7209528232083DF914F
:10248000CF911F910F91FF90EF90DF90BF90AF9091
:102490000895DC011C96ED91FC911D97E05CFF4FC7
:1024A0002191319180819181281B390B2F733070DC
:1024B000C9010895DC011C96ED91FC911D97E05C2B
:1024C000FF4F20813181E054F040DF01AE5BBF4F10
:1024D0008D919C9111972817390719F42FEF3FEF31
:1024E00007C08D919C91E80FF91F8081282F30E063
:1024F000C9010895DC011C96ED91FC911D97E05CEB
:10250000FF4F20813181E054F040DF01AE5BBF4FCF
:102510008D919C9111972817390719F42FEF3FEFF0
:1025200010C08D919C911197E80FF91F20818D911A
:102530009C91119701968F73907011969C938E9336
:1025400030E0C9010895DC0191968C919197882320
:1025500039F05496ED91FC915597808186FFF9CF23
:1025600091961C920895CF93DF93EC01EE85FF8541
:10257000E05CFF4F20813181E054F0402F5F3F4FFE
:102580002F733070DF01AE5BBF4F8D919C9111971F
:1025900028173907D1F3E05CFF4F80819181E05427
:1025A000F040E80FF91F6083EE85FF85E05CFF4F88
:1025B00031832083EE89FF89208181E090E00F8CB8
:1025C00002C0880F991F0A94E2F7282B208381E02C
:1025D00089A3EC89FD8980818064808381E090E01B
:1025E000DF91CF910895109216061092150688EE8D
:1025F00093E0A0E0B0E08093170690931806A093B4
:102600001906B0931A068EE391E090931406809316
:1026100013068BE895E09093200680931F068FECBD
:1026200095E0909322068093210685EC90E09093AC
:1026300024068093230684EC90E0909326068093F2
:10264000250680EC90E0909328068093270681EC85
:1026500090E090932A068093290682EC90E0909374
:102660002C0680932B0686EC90E090932E068093A8
:102670002D0684E080932F0683E08093300687E068
:102680008093310685E08093320681E080933306A3
:102690000895CF93DF930E94FE0F0E949C04CDE724
:1026A000D1E10E9437082097E1F30E947D11F9CF14
:1026B0000E949E000895CF92DF92EF92FF920F93B7
:1026C0001F93CF93DF937C016B018A01C0E0D0E0C0
:1026D0000FC0D6016D916D01D701ED91FC91019074
:1026E000F081E02DC7010995C80FD91F0150104096
:1026F0000115110571F7CE01DF91CF911F910F9157
:10270000FF90EF90DF90CF900895EF92FF920F939C
:102710001F93CF93DF937C018B01C0E0D0E0F801E1
:102720000F5F1F4F6491662359F0D701ED91FC9123
:102730000190F081E02DC7010995C80FD91FEFCF97
:10274000CE01DF91CF911F910F91FF90EF900895EF
:10275000DC01ED91FC910190F081E02D0995089547
:10276000EF92FF920F931F938C01DC01ED91FC918E
:102770000190F081E02D6DE009957C01D801ED918B
:10278000FC910190F081E02DC8016AE009959C015F
:102790002E0D3F1DC9011F910F91FF90EF900895DD
:1027A000EF92FF920F931F937C010E9485138C017F
:1027B000C7010E94B0139C01200F311FC9011F9156
:1027C0000F91FF90EF900895EF92FF920F931F9358
:1027D0007C01DC01ED91FC910190F081E02D0995E7
:1027E0008C01C7010E94B013080F191FC8011F9167
:1027F0000F91FF90EF900895CF93DF93EC01611557
:10280000710519F420E030E00FC0DB010D900020CD
:10281000E9F71197A61BB70BE881F9810280F381D4
:10282000E02DAD0109959C01C901DF91CF9108957B
:102830004F925F927F928F929F92AF92BF92CF9270
:10284000DF92EF92FF920F931F93DF93CF93CDB759
:10285000DEB7A1970FB6F894DEBF0FBECDBF2C0137
:10286000742ECB01223008F42AE019A231E2C32EE3
:10287000D12CCC0EDD1E822E9924AA24BB24672DD8
:10288000752FA50194010E94511579018A01C80193
:10289000B701A50194010E941F15472D461B0894FE
:1028A000C108D1084A3014F4405D01C0495CF6010A
:1028B0004083E114F1040105110521F07E2C5F2D08
:1028C000C801DDCFC201B6010E94FC13A1960FB66C
:1028D000F894DEBF0FBECDBFCF91DF911F910F9156
:1028E000FF90EF90DF90CF90BF90AF909F908F9030
:1028F0007F905F904F900895DC012115310541F4E0
:10290000ED91FC910190F081E02D642F09950895DF
:102910000E9418140895CF92DF92EF92FF920F93C6
:102920001F936C01E62E9A01FF2400E010E0B8012D
:10293000A7010E947C148C01C6010E94B013080FED
:10294000191FC8011F910F91FF90EF90DF90CF905A
:102950000895CF92DF92EF92FF920F931F93CF9340
:10296000DF93EC016A017B012115310541F4E88117
:10297000F9810190F081E02D642F09951FC02A3064
:102980003105D1F477FF17C0E881F9810190F0811A
:10299000E02D6DE209958C0144275527BA014C19A9
:1029A0005D096E097F09CE012AE00E941814980182
:1029B000280F391F04C02AE00E9418149C01C90185
:1029C000DF91CF911F910F91FF90EF90DF90CF900B
:1029D0000895EF92FF920F931F937C010E94A91418
:1029E0008C01C7010E94B0139C01200F311FC90147
:1029F0001F910F91FF90EF900895CF92DF92EF9289
:102A0000FF920F931F936C017B019A010027F7FC43
:102A10000095102FB801A7010E94A9148C01C601CE
:102A20000E94B013080F191FC8011F910F91FF904A
:102A3000EF90DF90CF9008950E94FC130895629F5D
:102A4000D001739FF001829FE00DF11D649FE00DA6
:102A5000F11D929FF00D839FF00D749FF00D659F07
:102A6000F00D9927729FB00DE11DF91F639FB00D06
:102A7000E11DF91FBD01CF011124089597FB092E17
:102A800007260AD077FD04D049D006D000201AF4DA
:102A9000709561957F4F0895F6F7909581959F4FBA
:102AA0000895A1E21A2EAA1BBB1BFD010DC0AA1F8F
:102AB000BB1FEE1FFF1FA217B307E407F50720F0A7
:102AC000A21BB30BE40BF50B661F771F881F991F22
:102AD0001A9469F760957095809590959B01AC016B
:102AE000BD01CF01089597FB092E05260ED057FD95
:102AF00004D0D7DF0AD0001C38F4509540953095AB
:102B000021953F4F4F4F5F4F0895F6F79095809571
:102B1000709561957F4F8F4F9F4F0895AA1BBB1BE8
:102B200051E107C0AA1FBB1FA617B70710F0A61BCD
:102B3000B70B881F991F5A95A9F780959095BC01EE
:102B4000CD010895EE0FFF1F0590F491E02D09943B
:042B5000F894FFCF27
:102B54000D0A002000390600003200200001001890
:102B6400FCFFFF0100000000EC01A701F501CC0609
:102B74007D05AF01B10100000000DD0AAC0A340A92
:102B84003D0A520A630A3705370500000000B312F4
:0A2B94005B1349127A125A12A312C1
:107E0000112484B714BE81FFF0D085E080938100F7
:107E100082E08093C00088E18093C10086E0809377
:107E2000C20085E18093C4008EE0C9D0259A86E027
:107E30002CE33BEF91E0309385002093840096BBC8
:107E4000B09BFECF1D9AA8958150A9F7CC24DD24C4
:107E500088248394B5E0AB2EA1E19A2EF3E0BF2EE7
:107E6000A2D0813461F49FD0082FAFD0023811F036
:107E7000013811F484E001C083E08DD089C08234E0
:107E800011F484E103C0853419F485E0A6D080C0E4
:107E9000853579F488D0E82EFF2485D0082F10E0AE
:107EA000102F00270E291F29000F111F8ED06801E7
:107EB0006FC0863521F484E090D080E0DECF843638
:107EC00009F040C070D06FD0082F6DD080E0C81688
:107ED00080E7D80618F4F601B7BEE895C0E0D1E017
:107EE00062D089930C17E1F7F0E0CF16F0E7DF06D8
:107EF00018F0F601B7BEE89568D007B600FCFDCFD4
:107F0000A601A0E0B1E02C9130E011968C91119780
:107F100090E0982F8827822B932B1296FA010C0160
:107F200087BEE89511244E5F5F4FF1E0A038BF0790
:107F300051F7F601A7BEE89507B600FCFDCF97BE46
:107F4000E89526C08437B1F42ED02DD0F82E2BD052
:107F50003CD0F601EF2C8F010F5F1F4F84911BD097
:107F6000EA94F801C1F70894C11CD11CFA94CF0C13
:107F7000D11C0EC0853739F428D08EE10CD085E9AC
:107F80000AD08FE07ACF813511F488E018D01DD067
:107F900080E101D065CF982F8091C00085FFFCCF94
:107FA0009093C60008958091C00087FFFCCF809118
:107FB000C00084FD01C0A8958091C6000895E0E648
:107FC000F0E098E1908380830895EDDF803219F02E
:107FD00088E0F5DFFFCF84E1DECF1F93182FE3DFCA
:107FE0001150E9F7F2DF1F91089580E0E8DFEE27F6
:047FF000FF270994CA
:027FFE00040479
:00000001FF
